{
  "contractName": "Transactions",
  "abi": [
    {
      "anonymous": false,
      "inputs": [
        {
          "indexed": false,
          "internalType": "address",
          "name": "from",
          "type": "address"
        },
        {
          "indexed": false,
          "internalType": "address",
          "name": "reciever",
          "type": "address"
        },
        {
          "indexed": false,
          "internalType": "uint256",
          "name": "amount",
          "type": "uint256"
        },
        {
          "indexed": false,
          "internalType": "string",
          "name": "message",
          "type": "string"
        },
        {
          "indexed": false,
          "internalType": "uint256",
          "name": "timestamp",
          "type": "uint256"
        }
      ],
      "name": "Transfer",
      "type": "event"
    },
    {
      "inputs": [
        {
          "internalType": "address payable",
          "name": "reciever",
          "type": "address"
        },
        {
          "internalType": "uint256",
          "name": "amount",
          "type": "uint256"
        },
        {
          "internalType": "string",
          "name": "message",
          "type": "string"
        }
      ],
      "name": "addBlockchain",
      "outputs": [],
      "stateMutability": "nonpayable",
      "type": "function"
    },
    {
      "inputs": [],
      "name": "getAllTransaction",
      "outputs": [
        {
          "components": [
            {
              "internalType": "address",
              "name": "sender",
              "type": "address"
            },
            {
              "internalType": "address",
              "name": "reciever",
              "type": "address"
            },
            {
              "internalType": "uint256",
              "name": "amount",
              "type": "uint256"
            },
            {
              "internalType": "string",
              "name": "message",
              "type": "string"
            },
            {
              "internalType": "uint256",
              "name": "timestamp",
              "type": "uint256"
            }
          ],
          "internalType": "struct Transactions.TransactionsStruct[]",
          "name": "",
          "type": "tuple[]"
        }
      ],
      "stateMutability": "view",
      "type": "function"
    },
    {
      "inputs": [],
      "name": "getTransactionCount",
      "outputs": [
        {
          "internalType": "uint256",
          "name": "",
          "type": "uint256"
        }
      ],
      "stateMutability": "view",
      "type": "function"
    }
  ],
  "bytecode": "0x608060405234801561001057600080fd5b50610d27806100206000396000f3fe608060405234801561001057600080fd5b50600436106100415760003560e01c80632e7700f0146100465780634ecb5c0214610064578063add6415d14610080575b600080fd5b61004e61009e565b60405161005b9190610406565b60405180910390f35b61007e60048036038101906100799190610605565b6100a7565b005b61008861023c565b6040516100959190610864565b60405180910390f35b60008054905090565b60016000808282546100b991906108b5565b9250508190555060016040518060a001604052803373ffffffffffffffffffffffffffffffffffffffff1681526020018573ffffffffffffffffffffffffffffffffffffffff16815260200184815260200183815260200142815250908060018154018082558091505060019003906000526020600020906005020160009091909190915060008201518160000160006101000a81548173ffffffffffffffffffffffffffffffffffffffff021916908373ffffffffffffffffffffffffffffffffffffffff16021790555060208201518160010160006101000a81548173ffffffffffffffffffffffffffffffffffffffff021916908373ffffffffffffffffffffffffffffffffffffffff1602179055506040820151816002015560608201518160030190816101eb9190610b17565b506080820151816004015550507fc4b32d7ff75a51e487f3cbb5d3202f2efecca1f4c2b987e0039c1d3220b48a83338484844260405161022f959493929190610c97565b60405180910390a1505050565b60606001805480602002602001604051908101604052809291908181526020016000905b828210156103e457838290600052602060002090600502016040518060a00160405290816000820160009054906101000a900473ffffffffffffffffffffffffffffffffffffffff1673ffffffffffffffffffffffffffffffffffffffff1673ffffffffffffffffffffffffffffffffffffffff1681526020016001820160009054906101000a900473ffffffffffffffffffffffffffffffffffffffff1673ffffffffffffffffffffffffffffffffffffffff1673ffffffffffffffffffffffffffffffffffffffff168152602001600282015481526020016003820180546103499061093a565b80601f01602080910402602001604051908101604052809291908181526020018280546103759061093a565b80156103c25780601f10610397576101008083540402835291602001916103c2565b820191906000526020600020905b8154815290600101906020018083116103a557829003601f168201915b5050505050815260200160048201548152505081526020019060010190610260565b50505050905090565b6000819050919050565b610400816103ed565b82525050565b600060208201905061041b60008301846103f7565b92915050565b6000604051905090565b600080fd5b600080fd5b600073ffffffffffffffffffffffffffffffffffffffff82169050919050565b600061046082610435565b9050919050565b61047081610455565b811461047b57600080fd5b50565b60008135905061048d81610467565b92915050565b61049c816103ed565b81146104a757600080fd5b50565b6000813590506104b981610493565b92915050565b600080fd5b600080fd5b6000601f19601f8301169050919050565b7f4e487b7100000000000000000000000000000000000000000000000000000000600052604160045260246000fd5b610512826104c9565b810181811067ffffffffffffffff82111715610531576105306104da565b5b80604052505050565b6000610544610421565b90506105508282610509565b919050565b600067ffffffffffffffff8211156105705761056f6104da565b5b610579826104c9565b9050602081019050919050565b82818337600083830152505050565b60006105a86105a384610555565b61053a565b9050828152602081018484840111156105c4576105c36104c4565b5b6105cf848285610586565b509392505050565b600082601f8301126105ec576105eb6104bf565b5b81356105fc848260208601610595565b91505092915050565b60008060006060848603121561061e5761061d61042b565b5b600061062c8682870161047e565b935050602061063d868287016104aa565b925050604084013567ffffffffffffffff81111561065e5761065d610430565b5b61066a868287016105d7565b9150509250925092565b600081519050919050565b600082825260208201905092915050565b6000819050602082019050919050565b60006106ab82610435565b9050919050565b6106bb816106a0565b82525050565b6106ca816103ed565b82525050565b600081519050919050565b600082825260208201905092915050565b60005b8381101561070a5780820151818401526020810190506106ef565b83811115610719576000848401525b50505050565b600061072a826106d0565b61073481856106db565b93506107448185602086016106ec565b61074d816104c9565b840191505092915050565b600060a08301600083015161077060008601826106b2565b50602083015161078360208601826106b2565b50604083015161079660408601826106c1565b50606083015184820360608601526107ae828261071f565b91505060808301516107c360808601826106c1565b508091505092915050565b60006107da8383610758565b905092915050565b6000602082019050919050565b60006107fa82610674565b610804818561067f565b93508360208202850161081685610690565b8060005b85811015610852578484038952815161083385826107ce565b945061083e836107e2565b925060208a0199505060018101905061081a565b50829750879550505050505092915050565b6000602082019050818103600083015261087e81846107ef565b905092915050565b7f4e487b7100000000000000000000000000000000000000000000000000000000600052601160045260246000fd5b60006108c0826103ed565b91506108cb836103ed565b9250827fffffffffffffffffffffffffffffffffffffffffffffffffffffffffffffffff03821115610900576108ff610886565b5b828201905092915050565b7f4e487b7100000000000000000000000000000000000000000000000000000000600052602260045260246000fd5b6000600282049050600182168061095257607f821691505b6020821081036109655761096461090b565b5b50919050565b60008190508160005260206000209050919050565b60006020601f8301049050919050565b600082821b905092915050565b6000600883026109cd7fffffffffffffffffffffffffffffffffffffffffffffffffffffffffffffffff82610990565b6109d78683610990565b95508019841693508086168417925050509392505050565b6000819050919050565b6000610a14610a0f610a0a846103ed565b6109ef565b6103ed565b9050919050565b6000819050919050565b610a2e836109f9565b610a42610a3a82610a1b565b84845461099d565b825550505050565b600090565b610a57610a4a565b610a62818484610a25565b505050565b5b81811015610a8657610a7b600082610a4f565b600181019050610a68565b5050565b601f821115610acb57610a9c8161096b565b610aa584610980565b81016020851015610ab4578190505b610ac8610ac085610980565b830182610a67565b50505b505050565b600082821c905092915050565b6000610aee60001984600802610ad0565b1980831691505092915050565b6000610b078383610add565b9150826002028217905092915050565b610b20826106d0565b67ffffffffffffffff811115610b3957610b386104da565b5b610b43825461093a565b610b4e828285610a8a565b600060209050601f831160018114610b815760008415610b6f578287015190505b610b798582610afb565b865550610be1565b601f198416610b8f8661096b565b60005b82811015610bb757848901518255600182019150602085019450602081019050610b92565b86831015610bd45784890151610bd0601f891682610add565b8355505b6001600288020188555050505b505050505050565b610bf2816106a0565b82525050565b6000610c13610c0e610c0984610435565b6109ef565b610435565b9050919050565b6000610c2582610bf8565b9050919050565b6000610c3782610c1a565b9050919050565b610c4781610c2c565b82525050565b600082825260208201905092915050565b6000610c69826106d0565b610c738185610c4d565b9350610c838185602086016106ec565b610c8c816104c9565b840191505092915050565b600060a082019050610cac6000830188610be9565b610cb96020830187610c3e565b610cc660408301866103f7565b8181036060830152610cd88185610c5e565b9050610ce760808301846103f7565b969550505050505056fea26469706673582212206b332249e26e9ffc9e16f97cc7f0f84d9e82598e3b2d0b3f1560012e6917c1bd64736f6c634300080f0033",
  "immutableReferences": {},
  "source": "// SPDX-License-Identifier: MIT\n\npragma solidity ^0.8.15;\n\ncontract Transactions {\n    //Number of transactions\n    uint256 transactionCount;\n\n    //This will be an event that will be fired when a Transactions is made\n    event Transfer(\n        address from,\n        address reciever,\n        uint256 amount,\n        string message,\n        uint256 timestamp\n    );\n\n    //Struct of the transaction that will be storing on chain.\n    struct TransactionsStruct {\n        address sender;\n        address reciever;\n        uint256 amount;\n        string message;\n        uint256 timestamp;\n    }\n\n    //Array of transactions\n    TransactionsStruct[] transactions;\n\n    //Function to add a transaction to the blockchain with our struct.\n    function addBlockchain(address payable reciever, uint256 amount, string memory message) public {\n        transactionCount += 1;\n        transactions.push(\n            TransactionsStruct(msg.sender, reciever, amount, message, block.timestamp)\n        );\n        //emit the events we created earlier\n        emit Transfer(msg.sender, reciever, amount, message, block.timestamp);\n    }\n\n    //Function to get all the Transactions.\n    function getAllTransaction() public view returns (TransactionsStruct[] memory) {\n        return transactions;\n    }\n\n    //function to get all the number of transactions\n    function getTransactionCount() public view returns (uint256) {\n        return transactionCount;\n    }\n\n    //View keyword means that the function can only be used to view the date.\n    //Therefore no ether needed to run this function.\n}\n",
  "sourcePath": "/home/xhunteq/Desktop/PROJECTS/githubFolder/venmo-blockchain/backend/contracts/Transaction.sol",
  "compiler": {
    "name": "solc",
    "version": "0.8.15+commit.e14f2714.Emscripten.clang"
  },
  "schemaVersion": "3.4.13",
  "updatedAt": "2023-05-13T08:17:36.915Z",
  "devdoc": {
    "kind": "dev",
    "methods": {},
    "version": 1
  },
  "userdoc": {
    "kind": "user",
    "methods": {},
    "version": 1
  }
}